{
  "address": "0x5FbDB2315678afecb367f032d93F642f64180aa3",
  "abi": [
    {
      "inputs": [
        {
          "internalType": "address[]",
          "name": "signers",
          "type": "address[]"
        },
        {
          "internalType": "uint256",
          "name": "signCount",
          "type": "uint256"
        }
      ],
      "stateMutability": "nonpayable",
      "type": "constructor"
    },
    {
      "inputs": [
        {
          "internalType": "address",
          "name": "signer",
          "type": "address"
        },
        {
          "internalType": "bytes32",
          "name": "callHash",
          "type": "bytes32"
        }
      ],
      "name": "AlreadySignedCall",
      "type": "error"
    },
    {
      "inputs": [
        {
          "internalType": "bytes",
          "name": "data",
          "type": "bytes"
        }
      ],
      "name": "InvalidCall",
      "type": "error"
    },
    {
      "inputs": [
        {
          "internalType": "address",
          "name": "signer",
          "type": "address"
        }
      ],
      "name": "InvalidSigner",
      "type": "error"
    },
    {
      "inputs": [],
      "name": "MultisigRequired",
      "type": "error"
    },
    {
      "anonymous": false,
      "inputs": [
        {
          "indexed": false,
          "internalType": "bytes32",
          "name": "paramsHash",
          "type": "bytes32"
        },
        {
          "indexed": false,
          "internalType": "bytes",
          "name": "result",
          "type": "bytes"
        }
      ],
      "name": "CallExecuted",
      "type": "event"
    },
    {
      "anonymous": false,
      "inputs": [
        {
          "indexed": false,
          "internalType": "bytes32",
          "name": "paramsHash",
          "type": "bytes32"
        }
      ],
      "name": "CallExecuted",
      "type": "event"
    },
    {
      "anonymous": false,
      "inputs": [
        {
          "indexed": false,
          "internalType": "address",
          "name": "signer",
          "type": "address"
        },
        {
          "indexed": false,
          "internalType": "bytes32",
          "name": "callHash",
          "type": "bytes32"
        }
      ],
      "name": "CallSigned",
      "type": "event"
    },
    {
      "inputs": [],
      "name": "modifierHelloWorld",
      "outputs": [
        {
          "internalType": "string",
          "name": "result",
          "type": "string"
        }
      ],
      "stateMutability": "nonpayable",
      "type": "function"
    },
    {
      "inputs": [
        {
          "internalType": "uint256",
          "name": "",
          "type": "uint256"
        }
      ],
      "name": "signers",
      "outputs": [
        {
          "internalType": "address",
          "name": "",
          "type": "address"
        }
      ],
      "stateMutability": "view",
      "type": "function"
    },
    {
      "inputs": [
        {
          "internalType": "uint256",
          "name": "x",
          "type": "uint256"
        },
        {
          "internalType": "uint256",
          "name": "y",
          "type": "uint256"
        }
      ],
      "name": "sumTwoNumbers",
      "outputs": [
        {
          "internalType": "uint256",
          "name": "result",
          "type": "uint256"
        }
      ],
      "stateMutability": "nonpayable",
      "type": "function"
    }
  ],
  "transactionHash": "0x327b5c8574e3c5909e0950f2aebd6db4f7c5de863844934d1ddcc3dde3b34972",
  "args": [
    [
      "0x70997970C51812dc3A010C7d01b50e0d17dc79C8",
      "0x3C44CdDdB6a900fa2b585dd299e03d12FA4293BC",
      "0x90F79bf6EB2c4f870365E785982E1f101E93b906",
      "0x15d34AAf54267DB7D7c367839AAf71A00a2C6A65",
      "0x9965507D1a55bcC2695C58ba16FB37d819B0A4dc",
      "0x976EA74026E726554dB657fA54763abd0C3a0aa9",
      "0x14dC79964da2C08b23698B3D3cc7Ca32193d9955",
      "0x23618e81E3f5cdF7f54C3d65f7FBc0aBf5B21E8f"
    ],
    4
  ],
  "numDeployments": 1,
  "solcInputHash": "7f52904b1e54000fe04dc11410851587",
  "bytecode": "0x60a060405234801561001057600080fd5b5060405161105638038061105683398181016040528101906100329190610304565b8181816000908051906020019061004a92919061005c565b50806080818152505050505050610360565b8280548282559060005260206000209081019282156100d5579160200282015b828111156100d45782518260006101000a81548173ffffffffffffffffffffffffffffffffffffffff021916908373ffffffffffffffffffffffffffffffffffffffff1602179055509160200191906001019061007c565b5b5090506100e291906100e6565b5090565b5b808211156100ff5760008160009055506001016100e7565b5090565b6000604051905090565b600080fd5b600080fd5b600080fd5b6000601f19601f8301169050919050565b7f4e487b7100000000000000000000000000000000000000000000000000000000600052604160045260246000fd5b6101658261011c565b810181811067ffffffffffffffff821117156101845761018361012d565b5b80604052505050565b6000610197610103565b90506101a3828261015c565b919050565b600067ffffffffffffffff8211156101c3576101c261012d565b5b602082029050602081019050919050565b600080fd5b600073ffffffffffffffffffffffffffffffffffffffff82169050919050565b6000610204826101d9565b9050919050565b610214816101f9565b811461021f57600080fd5b50565b6000815190506102318161020b565b92915050565b600061024a610245846101a8565b61018d565b9050808382526020820190506020840283018581111561026d5761026c6101d4565b5b835b8181101561029657806102828882610222565b84526020840193505060208101905061026f565b5050509392505050565b600082601f8301126102b5576102b4610117565b5b81516102c5848260208601610237565b91505092915050565b6000819050919050565b6102e1816102ce565b81146102ec57600080fd5b50565b6000815190506102fe816102d8565b92915050565b6000806040838503121561031b5761031a61010d565b5b600083015167ffffffffffffffff81111561033957610338610112565b5b610345858286016102a0565b9250506020610356858286016102ef565b9150509250929050565b608051610ccd610389600039600081816101c20152818161034e01526106820152610ccd6000f3fe608060405234801561001057600080fd5b50600436106100415760003560e01c80632079fb9a1461004657806351bb5fce1461007657806383b0c94114610094575b600080fd5b610060600480360381019061005b91906109ab565b6100c4565b60405161006d9190610a19565b60405180910390f35b61007e610103565b60405161008b9190610ac4565b60405180910390f35b6100ae60048036038101906100a99190610ae6565b610282565b6040516100bb9190610b35565b60405180910390f35b600081815481106100d457600080fd5b906000526020600020016000915054906101000a900473ffffffffffffffffffffffffffffffffffffffff1681565b606061010e336103e7565b6040516024016040516020818303038152906040526351bb5fce60e01b6020820180517bffffffffffffffffffffffffffffffffffffffffffffffffffffffff838183161783525050505060008180519060200120905061016f8133610530565b156101b35733816040517ff6c550220000000000000000000000000000000000000000000000000000000081526004016101aa929190610b69565b60405180910390fd5b60006101be82610649565b90507f00000000000000000000000000000000000000000000000000000000000000006001826101ee9190610bc1565b1015610203576101fe8233610669565b61027c565b61020c8261084f565b6040518060400160405280600b81526020017f48656c6c6f20576f726c6400000000000000000000000000000000000000000081525093507f19bc0030b2db0932a444e8960f1de302dcc61fad4b2952355878e281b6d76062826040516102739190610bf5565b60405180910390a15b50505090565b600061028d336103e7565b82826040516024016102a0929190610c10565b6040516020818303038152906040526383b0c94160e01b6020820180517bffffffffffffffffffffffffffffffffffffffffffffffffffffffff83818316178352505050506000818051906020012090506102fb8133610530565b1561033f5733816040517ff6c55022000000000000000000000000000000000000000000000000000000008152600401610336929190610b69565b60405180910390fd5b600061034a82610649565b90507f000000000000000000000000000000000000000000000000000000000000000060018261037a9190610bc1565b101561038f5761038a8233610669565b6103de565b6103988261084f565b84866103a49190610bc1565b93507f19bc0030b2db0932a444e8960f1de302dcc61fad4b2952355878e281b6d76062826040516103d59190610bf5565b60405180910390a15b50505092915050565b60008080548060200260200160405190810160405280929190818152602001828054801561046a57602002820191906000526020600020905b8160009054906101000a900473ffffffffffffffffffffffffffffffffffffffff1673ffffffffffffffffffffffffffffffffffffffff1681526020019060010190808311610420575b505050505090506000808054905090506000805b828110156104e7578473ffffffffffffffffffffffffffffffffffffffff168482815181106104b0576104af610c39565b5b602002602001015173ffffffffffffffffffffffffffffffffffffffff16036104dc57600191506104e7565b80600101905061047e565b508061052a57836040517fbf18af430000000000000000000000000000000000000000000000000000000081526004016105219190610a19565b60405180910390fd5b50505050565b600080600160008581526020019081526020016000208054806020026020016040519081016040528092919081815260200182805480156105c657602002820191906000526020600020905b8160009054906101000a900473ffffffffffffffffffffffffffffffffffffffff1673ffffffffffffffffffffffffffffffffffffffff168152602001906001019080831161057c575b5050505050905060005b815181101561063c578373ffffffffffffffffffffffffffffffffffffffff1682828151811061060357610602610c39565b5b602002602001015173ffffffffffffffffffffffffffffffffffffffff160361063157600192505050610643565b8060010190506105d0565b5060009150505b92915050565b600060016000838152602001908152602001600020805490509050919050565b600061067483610649565b9050600081036107a25760007f000000000000000000000000000000000000000000000000000000000000000067ffffffffffffffff8111156106ba576106b9610c68565b5b6040519080825280602002602001820160405280156106e85781602001602082028036833780820191505090505b5090508281600081518110610700576106ff610c39565b5b602002602001019073ffffffffffffffffffffffffffffffffffffffff16908173ffffffffffffffffffffffffffffffffffffffff1681525050806001600086815260200190815260200160002090805190602001906107619291906108c9565b507f3195d2d52c15f9b6ac435e2291e5e192e357b780398cd69a6a60a1c57765dafd8385604051610793929190610b69565b60405180910390a1505061084b565b816001600085815260200190815260200160002082815481106107c8576107c7610c39565b5b9060005260206000200160006101000a81548173ffffffffffffffffffffffffffffffffffffffff021916908373ffffffffffffffffffffffffffffffffffffffff1602179055507f3195d2d52c15f9b6ac435e2291e5e192e357b780398cd69a6a60a1c57765dafd8284604051610841929190610b69565b60405180910390a1505b5050565b600061085a82610649565b905060005b818110156108c45760016000848152602001908152602001600020818154811061088c5761088b610c39565b5b9060005260206000200160006101000a81549073ffffffffffffffffffffffffffffffffffffffff021916905580600101905061085f565b505050565b828054828255906000526020600020908101928215610942579160200282015b828111156109415782518260006101000a81548173ffffffffffffffffffffffffffffffffffffffff021916908373ffffffffffffffffffffffffffffffffffffffff160217905550916020019190600101906108e9565b5b50905061094f9190610953565b5090565b5b8082111561096c576000816000905550600101610954565b5090565b600080fd5b6000819050919050565b61098881610975565b811461099357600080fd5b50565b6000813590506109a58161097f565b92915050565b6000602082840312156109c1576109c0610970565b5b60006109cf84828501610996565b91505092915050565b600073ffffffffffffffffffffffffffffffffffffffff82169050919050565b6000610a03826109d8565b9050919050565b610a13816109f8565b82525050565b6000602082019050610a2e6000830184610a0a565b92915050565b600081519050919050565b600082825260208201905092915050565b60005b83811015610a6e578082015181840152602081019050610a53565b60008484015250505050565b6000601f19601f8301169050919050565b6000610a9682610a34565b610aa08185610a3f565b9350610ab0818560208601610a50565b610ab981610a7a565b840191505092915050565b60006020820190508181036000830152610ade8184610a8b565b905092915050565b60008060408385031215610afd57610afc610970565b5b6000610b0b85828601610996565b9250506020610b1c85828601610996565b9150509250929050565b610b2f81610975565b82525050565b6000602082019050610b4a6000830184610b26565b92915050565b6000819050919050565b610b6381610b50565b82525050565b6000604082019050610b7e6000830185610a0a565b610b8b6020830184610b5a565b9392505050565b7f4e487b7100000000000000000000000000000000000000000000000000000000600052601160045260246000fd5b6000610bcc82610975565b9150610bd783610975565b9250828201905080821115610bef57610bee610b92565b5b92915050565b6000602082019050610c0a6000830184610b5a565b92915050565b6000604082019050610c256000830185610b26565b610c326020830184610b26565b9392505050565b7f4e487b7100000000000000000000000000000000000000000000000000000000600052603260045260246000fd5b7f4e487b7100000000000000000000000000000000000000000000000000000000600052604160045260246000fdfea26469706673582212208cee68c8250e5da145bbd9ffe36a84bbf232f3b91434bd6a0b82a8d79397e17664736f6c63430008190033",
  "devdoc": {
    "kind": "dev",
    "methods": {},
    "version": 1
  },
  "userdoc": {
    "kind": "user",
    "methods": {},
    "version": 1
  },
  "storageLayout": {
    "storage": [
      {
        "astId": 4694,
        "contract": "contracts/mocks/MultisigExample.sol:MSExample",
        "label": "signers",
        "offset": 0,
        "slot": "0",
        "type": "t_array(t_address)dyn_storage"
      },
      {
        "astId": 4699,
        "contract": "contracts/mocks/MultisigExample.sol:MSExample",
        "label": "signatures",
        "offset": 0,
        "slot": "1",
        "type": "t_mapping(t_bytes32,t_array(t_address)dyn_storage)"
      }
    ],
    "types": {
      "t_address": {
        "encoding": "inplace",
        "label": "address",
        "numberOfBytes": "20"
      },
      "t_array(t_address)dyn_storage": {
        "base": "t_address",
        "encoding": "dynamic_array",
        "label": "address[]",
        "numberOfBytes": "32"
      },
      "t_bytes32": {
        "encoding": "inplace",
        "label": "bytes32",
        "numberOfBytes": "32"
      },
      "t_mapping(t_bytes32,t_array(t_address)dyn_storage)": {
        "encoding": "mapping",
        "key": "t_bytes32",
        "label": "mapping(bytes32 => address[])",
        "numberOfBytes": "32",
        "value": "t_array(t_address)dyn_storage"
      }
    }
  }
}